{
  "contractName": "bitcoincore",
  "abi": [
    {
      "inputs": [],
      "stateMutability": "nonpayable",
      "type": "constructor"
    },
    {
      "anonymous": false,
      "inputs": [
        {
          "indexed": true,
          "internalType": "address",
          "name": "owner",
          "type": "address"
        },
        {
          "indexed": true,
          "internalType": "address",
          "name": "spender",
          "type": "address"
        },
        {
          "indexed": false,
          "internalType": "uint256",
          "name": "value",
          "type": "uint256"
        }
      ],
      "name": "Approval",
      "type": "event"
    },
    {
      "anonymous": false,
      "inputs": [
        {
          "indexed": true,
          "internalType": "address",
          "name": "from",
          "type": "address"
        },
        {
          "indexed": true,
          "internalType": "address",
          "name": "to",
          "type": "address"
        },
        {
          "indexed": false,
          "internalType": "uint256",
          "name": "value",
          "type": "uint256"
        }
      ],
      "name": "Transfer",
      "type": "event"
    },
    {
      "inputs": [
        {
          "internalType": "address",
          "name": "owner",
          "type": "address"
        },
        {
          "internalType": "address",
          "name": "spender",
          "type": "address"
        }
      ],
      "name": "allowance",
      "outputs": [
        {
          "internalType": "uint256",
          "name": "",
          "type": "uint256"
        }
      ],
      "stateMutability": "view",
      "type": "function"
    },
    {
      "inputs": [
        {
          "internalType": "address",
          "name": "spender",
          "type": "address"
        },
        {
          "internalType": "uint256",
          "name": "amount",
          "type": "uint256"
        }
      ],
      "name": "approve",
      "outputs": [
        {
          "internalType": "bool",
          "name": "",
          "type": "bool"
        }
      ],
      "stateMutability": "nonpayable",
      "type": "function"
    },
    {
      "inputs": [
        {
          "internalType": "address",
          "name": "account",
          "type": "address"
        }
      ],
      "name": "balanceOf",
      "outputs": [
        {
          "internalType": "uint256",
          "name": "",
          "type": "uint256"
        }
      ],
      "stateMutability": "view",
      "type": "function"
    },
    {
      "inputs": [],
      "name": "decimals",
      "outputs": [
        {
          "internalType": "uint8",
          "name": "",
          "type": "uint8"
        }
      ],
      "stateMutability": "view",
      "type": "function"
    },
    {
      "inputs": [
        {
          "internalType": "address",
          "name": "spender",
          "type": "address"
        },
        {
          "internalType": "uint256",
          "name": "subtractedValue",
          "type": "uint256"
        }
      ],
      "name": "decreaseAllowance",
      "outputs": [
        {
          "internalType": "bool",
          "name": "",
          "type": "bool"
        }
      ],
      "stateMutability": "nonpayable",
      "type": "function"
    },
    {
      "inputs": [
        {
          "internalType": "address",
          "name": "spender",
          "type": "address"
        },
        {
          "internalType": "uint256",
          "name": "addedValue",
          "type": "uint256"
        }
      ],
      "name": "increaseAllowance",
      "outputs": [
        {
          "internalType": "bool",
          "name": "",
          "type": "bool"
        }
      ],
      "stateMutability": "nonpayable",
      "type": "function"
    },
    {
      "inputs": [],
      "name": "name",
      "outputs": [
        {
          "internalType": "string",
          "name": "",
          "type": "string"
        }
      ],
      "stateMutability": "view",
      "type": "function"
    },
    {
      "inputs": [],
      "name": "symbol",
      "outputs": [
        {
          "internalType": "string",
          "name": "",
          "type": "string"
        }
      ],
      "stateMutability": "view",
      "type": "function"
    },
    {
      "inputs": [],
      "name": "totalSupply",
      "outputs": [
        {
          "internalType": "uint256",
          "name": "",
          "type": "uint256"
        }
      ],
      "stateMutability": "view",
      "type": "function"
    },
    {
      "inputs": [
        {
          "internalType": "address",
          "name": "to",
          "type": "address"
        },
        {
          "internalType": "uint256",
          "name": "amount",
          "type": "uint256"
        }
      ],
      "name": "transfer",
      "outputs": [
        {
          "internalType": "bool",
          "name": "",
          "type": "bool"
        }
      ],
      "stateMutability": "nonpayable",
      "type": "function"
    },
    {
      "inputs": [
        {
          "internalType": "address",
          "name": "from",
          "type": "address"
        },
        {
          "internalType": "address",
          "name": "to",
          "type": "address"
        },
        {
          "internalType": "uint256",
          "name": "amount",
          "type": "uint256"
        }
      ],
      "name": "transferFrom",
      "outputs": [
        {
          "internalType": "bool",
          "name": "",
          "type": "bool"
        }
      ],
      "stateMutability": "nonpayable",
      "type": "function"
    },
    {
      "inputs": [],
      "name": "mint",
      "outputs": [],
      "stateMutability": "payable",
      "type": "function"
    }
  ],
  "bytecode": "0x60806040523480156200001157600080fd5b506040518060400160405280601081526020017f426974636f696e636f726520436f696e000000000000000000000000000000008152506040518060400160405280600b81526020017f626974636f696e636f7265000000000000000000000000000000000000000000815250816003908051906020019062000096929190620000f9565b508060049080519060200190620000af929190620000f9565b50505033600560006101000a81548173ffffffffffffffffffffffffffffffffffffffff021916908373ffffffffffffffffffffffffffffffffffffffff1602179055506200020e565b8280546200010790620001d8565b90600052602060002090601f0160209004810192826200012b576000855562000177565b82601f106200014657805160ff191683800117855562000177565b8280016001018555821562000177579182015b828111156200017657825182559160200191906001019062000159565b5b5090506200018691906200018a565b5090565b5b80821115620001a55760008160009055506001016200018b565b5090565b7f4e487b7100000000000000000000000000000000000000000000000000000000600052602260045260246000fd5b60006002820490506001821680620001f157607f821691505b60208210811415620002085762000207620001a9565b5b50919050565b6114dd806200021e6000396000f3fe6080604052600436106100a75760003560e01c8063395093511161006457806339509351146101b157806370a08231146101ee57806395d89b411461022b578063a457c2d714610256578063a9059cbb14610293578063dd62ed3e146102d0576100a7565b806306fdde03146100ac578063095ea7b3146100d75780631249c58b1461011457806318160ddd1461011e57806323b872dd14610149578063313ce56714610186575b600080fd5b3480156100b857600080fd5b506100c161030d565b6040516100ce9190610d2b565b60405180910390f35b3480156100e357600080fd5b506100fe60048036038101906100f99190610de6565b61039f565b60405161010b9190610e41565b60405180910390f35b61011c6103c2565b005b34801561012a57600080fd5b506101336103d4565b6040516101409190610e6b565b60405180910390f35b34801561015557600080fd5b50610170600480360381019061016b9190610e86565b6103de565b60405161017d9190610e41565b60405180910390f35b34801561019257600080fd5b5061019b61040d565b6040516101a89190610ef5565b60405180910390f35b3480156101bd57600080fd5b506101d860048036038101906101d39190610de6565b610416565b6040516101e59190610e41565b60405180910390f35b3480156101fa57600080fd5b5061021560048036038101906102109190610f10565b61044d565b6040516102229190610e6b565b60405180910390f35b34801561023757600080fd5b50610240610495565b60405161024d9190610d2b565b60405180910390f35b34801561026257600080fd5b5061027d60048036038101906102789190610de6565b610527565b60405161028a9190610e41565b60405180910390f35b34801561029f57600080fd5b506102ba60048036038101906102b59190610de6565b61059e565b6040516102c79190610e41565b60405180910390f35b3480156102dc57600080fd5b506102f760048036038101906102f29190610f3d565b6105c1565b6040516103049190610e6b565b60405180910390f35b60606003805461031c90610fac565b80601f016020809104026020016040519081016040528092919081815260200182805461034890610fac565b80156103955780601f1061036a57610100808354040283529160200191610395565b820191906000526020600020905b81548152906001019060200180831161037857829003601f168201915b5050505050905090565b6000806103aa610648565b90506103b7818585610650565b600191505092915050565b60003490506103d1338261081b565b50565b6000600254905090565b6000806103e9610648565b90506103f685828561097b565b610401858585610a07565b60019150509392505050565b60006012905090565b600080610421610648565b905061044281858561043385896105c1565b61043d919061100d565b610650565b600191505092915050565b60008060008373ffffffffffffffffffffffffffffffffffffffff1673ffffffffffffffffffffffffffffffffffffffff168152602001908152602001600020549050919050565b6060600480546104a490610fac565b80601f01602080910402602001604051908101604052809291908181526020018280546104d090610fac565b801561051d5780601f106104f25761010080835404028352916020019161051d565b820191906000526020600020905b81548152906001019060200180831161050057829003601f168201915b5050505050905090565b600080610532610648565b9050600061054082866105c1565b905083811015610585576040517f08c379a000000000000000000000000000000000000000000000000000000000815260040161057c906110d5565b60405180910390fd5b6105928286868403610650565b60019250505092915050565b6000806105a9610648565b90506105b6818585610a07565b600191505092915050565b6000600160008473ffffffffffffffffffffffffffffffffffffffff1673ffffffffffffffffffffffffffffffffffffffff16815260200190815260200160002060008373ffffffffffffffffffffffffffffffffffffffff1673ffffffffffffffffffffffffffffffffffffffff16815260200190815260200160002054905092915050565b600033905090565b600073ffffffffffffffffffffffffffffffffffffffff168373ffffffffffffffffffffffffffffffffffffffff1614156106c0576040517f08c379a00000000000000000000000000000000000000000000000000000000081526004016106b790611167565b60405180910390fd5b600073ffffffffffffffffffffffffffffffffffffffff168273ffffffffffffffffffffffffffffffffffffffff161415610730576040517f08c379a0000000000000000000000000000000000000000000000000000000008152600401610727906111f9565b60405180910390fd5b80600160008573ffffffffffffffffffffffffffffffffffffffff1673ffffffffffffffffffffffffffffffffffffffff16815260200190815260200160002060008473ffffffffffffffffffffffffffffffffffffffff1673ffffffffffffffffffffffffffffffffffffffff168152602001908152602001600020819055508173ffffffffffffffffffffffffffffffffffffffff168373ffffffffffffffffffffffffffffffffffffffff167f8c5be1e5ebec7d5bd14f71427d1e84f3dd0314c0f7b2291e5b200ac8c7c3b9258360405161080e9190610e6b565b60405180910390a3505050565b600073ffffffffffffffffffffffffffffffffffffffff168273ffffffffffffffffffffffffffffffffffffffff16141561088b576040517f08c379a000000000000000000000000000000000000000000000000000000000815260040161088290611265565b60405180910390fd5b61089760008383610c88565b80600260008282546108a9919061100d565b92505081905550806000808473ffffffffffffffffffffffffffffffffffffffff1673ffffffffffffffffffffffffffffffffffffffff16815260200190815260200160002060008282546108fe919061100d565b925050819055508173ffffffffffffffffffffffffffffffffffffffff16600073ffffffffffffffffffffffffffffffffffffffff167fddf252ad1be2c89b69c2b068fc378daa952ba7f163c4a11628f55a4df523b3ef836040516109639190610e6b565b60405180910390a361097760008383610c8d565b5050565b600061098784846105c1565b90507fffffffffffffffffffffffffffffffffffffffffffffffffffffffffffffffff8114610a0157818110156109f3576040517f08c379a00000000000000000000000000000000000000000000000000000000081526004016109ea906112d1565b60405180910390fd5b610a008484848403610650565b5b50505050565b600073ffffffffffffffffffffffffffffffffffffffff168373ffffffffffffffffffffffffffffffffffffffff161415610a77576040517f08c379a0000000000000000000000000000000000000000000000000000000008152600401610a6e90611363565b60405180910390fd5b600073ffffffffffffffffffffffffffffffffffffffff168273ffffffffffffffffffffffffffffffffffffffff161415610ae7576040517f08c379a0000000000000000000000000000000000000000000000000000000008152600401610ade906113f5565b60405180910390fd5b610af2838383610c88565b60008060008573ffffffffffffffffffffffffffffffffffffffff1673ffffffffffffffffffffffffffffffffffffffff16815260200190815260200160002054905081811015610b78576040517f08c379a0000000000000000000000000000000000000000000000000000000008152600401610b6f90611487565b60405180910390fd5b8181036000808673ffffffffffffffffffffffffffffffffffffffff1673ffffffffffffffffffffffffffffffffffffffff16815260200190815260200160002081905550816000808573ffffffffffffffffffffffffffffffffffffffff1673ffffffffffffffffffffffffffffffffffffffff1681526020019081526020016000206000828254610c0b919061100d565b925050819055508273ffffffffffffffffffffffffffffffffffffffff168473ffffffffffffffffffffffffffffffffffffffff167fddf252ad1be2c89b69c2b068fc378daa952ba7f163c4a11628f55a4df523b3ef84604051610c6f9190610e6b565b60405180910390a3610c82848484610c8d565b50505050565b505050565b505050565b600081519050919050565b600082825260208201905092915050565b60005b83811015610ccc578082015181840152602081019050610cb1565b83811115610cdb576000848401525b50505050565b6000601f19601f8301169050919050565b6000610cfd82610c92565b610d078185610c9d565b9350610d17818560208601610cae565b610d2081610ce1565b840191505092915050565b60006020820190508181036000830152610d458184610cf2565b905092915050565b600080fd5b600073ffffffffffffffffffffffffffffffffffffffff82169050919050565b6000610d7d82610d52565b9050919050565b610d8d81610d72565b8114610d9857600080fd5b50565b600081359050610daa81610d84565b92915050565b6000819050919050565b610dc381610db0565b8114610dce57600080fd5b50565b600081359050610de081610dba565b92915050565b60008060408385031215610dfd57610dfc610d4d565b5b6000610e0b85828601610d9b565b9250506020610e1c85828601610dd1565b9150509250929050565b60008115159050919050565b610e3b81610e26565b82525050565b6000602082019050610e566000830184610e32565b92915050565b610e6581610db0565b82525050565b6000602082019050610e806000830184610e5c565b92915050565b600080600060608486031215610e9f57610e9e610d4d565b5b6000610ead86828701610d9b565b9350506020610ebe86828701610d9b565b9250506040610ecf86828701610dd1565b9150509250925092565b600060ff82169050919050565b610eef81610ed9565b82525050565b6000602082019050610f0a6000830184610ee6565b92915050565b600060208284031215610f2657610f25610d4d565b5b6000610f3484828501610d9b565b91505092915050565b60008060408385031215610f5457610f53610d4d565b5b6000610f6285828601610d9b565b9250506020610f7385828601610d9b565b9150509250929050565b7f4e487b7100000000000000000000000000000000000000000000000000000000600052602260045260246000fd5b60006002820490506001821680610fc457607f821691505b60208210811415610fd857610fd7610f7d565b5b50919050565b7f4e487b7100000000000000000000000000000000000000000000000000000000600052601160045260246000fd5b600061101882610db0565b915061102383610db0565b9250827fffffffffffffffffffffffffffffffffffffffffffffffffffffffffffffffff0382111561105857611057610fde565b5b828201905092915050565b7f45524332303a2064656372656173656420616c6c6f77616e63652062656c6f7760008201527f207a65726f000000000000000000000000000000000000000000000000000000602082015250565b60006110bf602583610c9d565b91506110ca82611063565b604082019050919050565b600060208201905081810360008301526110ee816110b2565b9050919050565b7f45524332303a20617070726f76652066726f6d20746865207a65726f2061646460008201527f7265737300000000000000000000000000000000000000000000000000000000602082015250565b6000611151602483610c9d565b915061115c826110f5565b604082019050919050565b6000602082019050818103600083015261118081611144565b9050919050565b7f45524332303a20617070726f766520746f20746865207a65726f20616464726560008201527f7373000000000000000000000000000000000000000000000000000000000000602082015250565b60006111e3602283610c9d565b91506111ee82611187565b604082019050919050565b60006020820190508181036000830152611212816111d6565b9050919050565b7f45524332303a206d696e7420746f20746865207a65726f206164647265737300600082015250565b600061124f601f83610c9d565b915061125a82611219565b602082019050919050565b6000602082019050818103600083015261127e81611242565b9050919050565b7f45524332303a20696e73756666696369656e7420616c6c6f77616e6365000000600082015250565b60006112bb601d83610c9d565b91506112c682611285565b602082019050919050565b600060208201905081810360008301526112ea816112ae565b9050919050565b7f45524332303a207472616e736665722066726f6d20746865207a65726f20616460008201527f6472657373000000000000000000000000000000000000000000000000000000602082015250565b600061134d602583610c9d565b9150611358826112f1565b604082019050919050565b6000602082019050818103600083015261137c81611340565b9050919050565b7f45524332303a207472616e7366657220746f20746865207a65726f206164647260008201527f6573730000000000000000000000000000000000000000000000000000000000602082015250565b60006113df602383610c9d565b91506113ea82611383565b604082019050919050565b6000602082019050818103600083015261140e816113d2565b9050919050565b7f45524332303a207472616e7366657220616d6f756e742065786365656473206260008201527f616c616e63650000000000000000000000000000000000000000000000000000602082015250565b6000611471602683610c9d565b915061147c82611415565b604082019050919050565b600060208201905081810360008301526114a081611464565b905091905056fea264697066735822122019ab57c6722fb204c9803a9740b41a7f47382da0b3b0bc354ad3f437fe6db55864736f6c634300080b0033",
  "immutableReferences": {},
  "source": "// SPDX-License-Identifier: MIT\r\npragma solidity ^0.8.10;\r\n\r\n\r\nimport \"@openzeppelin/contracts/token/ERC20/ERC20.sol\";\r\n\r\ncontract bitcoincore is ERC20 {\r\n    address private _owner;\r\n\r\n    constructor() ERC20(\"Bitcoincore Coin\", \"bitcoincore\") {\r\n        _owner = msg.sender;\r\n    }\r\n\r\n    function mint() external payable{\r\n        uint256 newTokenAmount = msg.value;\r\n        \r\n        _mint(msg.sender, newTokenAmount);\r\n    }\r\n}",
  "sourcePath": "C:\\Bitcoincore\\contracts\\bitcoincore.sol",
  "compiler": {
    "name": "solc",
    "version": "0.8.11+commit.d7f03943.Emscripten.clang"
  },
  "schemaVersion": "3.4.9",
  "updatedAt": "2022-09-08T21:51:13.472Z",
  "devdoc": {
    "kind": "dev",
    "methods": {
      "allowance(address,address)": {
        "details": "See {IERC20-allowance}."
      },
      "approve(address,uint256)": {
        "details": "See {IERC20-approve}. NOTE: If `amount` is the maximum `uint256`, the allowance is not updated on `transferFrom`. This is semantically equivalent to an infinite approval. Requirements: - `spender` cannot be the zero address."
      },
      "balanceOf(address)": {
        "details": "See {IERC20-balanceOf}."
      },
      "decimals()": {
        "details": "Returns the number of decimals used to get its user representation. For example, if `decimals` equals `2`, a balance of `505` tokens should be displayed to a user as `5.05` (`505 / 10 ** 2`). Tokens usually opt for a value of 18, imitating the relationship between Ether and Wei. This is the value {ERC20} uses, unless this function is overridden; NOTE: This information is only used for _display_ purposes: it in no way affects any of the arithmetic of the contract, including {IERC20-balanceOf} and {IERC20-transfer}."
      },
      "decreaseAllowance(address,uint256)": {
        "details": "Atomically decreases the allowance granted to `spender` by the caller. This is an alternative to {approve} that can be used as a mitigation for problems described in {IERC20-approve}. Emits an {Approval} event indicating the updated allowance. Requirements: - `spender` cannot be the zero address. - `spender` must have allowance for the caller of at least `subtractedValue`."
      },
      "increaseAllowance(address,uint256)": {
        "details": "Atomically increases the allowance granted to `spender` by the caller. This is an alternative to {approve} that can be used as a mitigation for problems described in {IERC20-approve}. Emits an {Approval} event indicating the updated allowance. Requirements: - `spender` cannot be the zero address."
      },
      "name()": {
        "details": "Returns the name of the token."
      },
      "symbol()": {
        "details": "Returns the symbol of the token, usually a shorter version of the name."
      },
      "totalSupply()": {
        "details": "See {IERC20-totalSupply}."
      },
      "transfer(address,uint256)": {
        "details": "See {IERC20-transfer}. Requirements: - `to` cannot be the zero address. - the caller must have a balance of at least `amount`."
      },
      "transferFrom(address,address,uint256)": {
        "details": "See {IERC20-transferFrom}. Emits an {Approval} event indicating the updated allowance. This is not required by the EIP. See the note at the beginning of {ERC20}. NOTE: Does not update the allowance if the current allowance is the maximum `uint256`. Requirements: - `from` and `to` cannot be the zero address. - `from` must have a balance of at least `amount`. - the caller must have allowance for ``from``'s tokens of at least `amount`."
      }
    },
    "version": 1
  },
  "userdoc": {
    "kind": "user",
    "methods": {},
    "version": 1
  }
}