{
  "contractName": "FeeCollector",
  "abi": [
    {
      "inputs": [],
      "stateMutability": "nonpayable",
      "type": "constructor"
    },
    {
      "anonymous": false,
      "inputs": [
        {
          "indexed": false,
          "internalType": "address",
          "name": "_from",
          "type": "address"
        },
        {
          "indexed": false,
          "internalType": "uint256",
          "name": "_amount",
          "type": "uint256"
        }
      ],
      "name": "TransferReceived",
      "type": "event"
    },
    {
      "anonymous": false,
      "inputs": [
        {
          "indexed": false,
          "internalType": "address",
          "name": "_from",
          "type": "address"
        },
        {
          "indexed": false,
          "internalType": "address",
          "name": "_destAddr",
          "type": "address"
        },
        {
          "indexed": false,
          "internalType": "uint256",
          "name": "_amount",
          "type": "uint256"
        }
      ],
      "name": "TransferSent",
      "type": "event"
    },
    {
      "inputs": [],
      "name": "balance",
      "outputs": [
        {
          "internalType": "uint256",
          "name": "",
          "type": "uint256"
        }
      ],
      "stateMutability": "view",
      "type": "function"
    },
    {
      "inputs": [],
      "name": "owner",
      "outputs": [
        {
          "internalType": "address",
          "name": "",
          "type": "address"
        }
      ],
      "stateMutability": "view",
      "type": "function"
    },
    {
      "stateMutability": "payable",
      "type": "receive"
    },
    {
      "inputs": [
        {
          "internalType": "uint256",
          "name": "amount",
          "type": "uint256"
        },
        {
          "internalType": "address payable",
          "name": "destAddr",
          "type": "address"
        }
      ],
      "name": "withdraw",
      "outputs": [],
      "stateMutability": "nonpayable",
      "type": "function"
    },
    {
      "inputs": [
        {
          "internalType": "contract IERC20",
          "name": "token",
          "type": "address"
        },
        {
          "internalType": "address",
          "name": "to",
          "type": "address"
        },
        {
          "internalType": "uint256",
          "name": "amount",
          "type": "uint256"
        }
      ],
      "name": "transferERC20",
      "outputs": [],
      "stateMutability": "nonpayable",
      "type": "function"
    }
  ],
  "bytecode": "0x608060405234801561001057600080fd5b50336000806101000a81548173ffffffffffffffffffffffffffffffffffffffff021916908373ffffffffffffffffffffffffffffffffffffffff160217905550610ad0806100606000396000f3fe6080604052600436106100425760003560e01c8062f714ce146100a05780638da5cb5b146100c95780639db5dbe4146100f4578063b69ef8a81461011d5761009b565b3661009b573460016000828254610059919061052c565b925050819055507ff1b03f708b9c39f453fe3f0cef84164c7d6f7df836df0796e1e9c2bce6ee397e33346040516100919291906105d2565b60405180910390a1005b600080fd5b3480156100ac57600080fd5b506100c760048036038101906100c2919061066a565b610148565b005b3480156100d557600080fd5b506100de6102ba565b6040516100eb91906106aa565b60405180910390f35b34801561010057600080fd5b5061011b6004803603810190610116919061072f565b6102de565b005b34801561012957600080fd5b506101326104ed565b60405161013f9190610782565b60405180910390f35b60008054906101000a900473ffffffffffffffffffffffffffffffffffffffff1673ffffffffffffffffffffffffffffffffffffffff163373ffffffffffffffffffffffffffffffffffffffff16146101d6576040517f08c379a00000000000000000000000000000000000000000000000000000000081526004016101cd906107fa565b60405180910390fd5b60015482111561021b576040517f08c379a000000000000000000000000000000000000000000000000000000000815260040161021290610866565b60405180910390fd5b8073ffffffffffffffffffffffffffffffffffffffff166108fc839081150290604051600060405180830381858888f19350505050158015610261573d6000803e3d6000fd5b5081600160008282546102749190610886565b925050819055507ffda3a3e0e1479b43cb1c701f7576187f4c4ad80768d627387e00184302f7d88e3382846040516102ae93929190610919565b60405180910390a15050565b60008054906101000a900473ffffffffffffffffffffffffffffffffffffffff1681565b60008054906101000a900473ffffffffffffffffffffffffffffffffffffffff1673ffffffffffffffffffffffffffffffffffffffff163373ffffffffffffffffffffffffffffffffffffffff161461036c576040517f08c379a0000000000000000000000000000000000000000000000000000000008152600401610363906107fa565b60405180910390fd5b60008373ffffffffffffffffffffffffffffffffffffffff166370a08231306040518263ffffffff1660e01b81526004016103a791906106aa565b602060405180830381865afa1580156103c4573d6000803e3d6000fd5b505050506040513d601f19601f820116820180604052508101906103e89190610965565b90508082111561042d576040517f08c379a0000000000000000000000000000000000000000000000000000000008152600401610424906109de565b60405180910390fd5b8373ffffffffffffffffffffffffffffffffffffffff1663a9059cbb84846040518363ffffffff1660e01b81526004016104689291906105d2565b6020604051808303816000875af1158015610487573d6000803e3d6000fd5b505050506040513d601f19601f820116820180604052508101906104ab9190610a36565b507ffda3a3e0e1479b43cb1c701f7576187f4c4ad80768d627387e00184302f7d88e3384846040516104df93929190610a63565b60405180910390a150505050565b60015481565b6000819050919050565b7f4e487b7100000000000000000000000000000000000000000000000000000000600052601160045260246000fd5b6000610537826104f3565b9150610542836104f3565b9250827fffffffffffffffffffffffffffffffffffffffffffffffffffffffffffffffff03821115610577576105766104fd565b5b828201905092915050565b600073ffffffffffffffffffffffffffffffffffffffff82169050919050565b60006105ad82610582565b9050919050565b6105bd816105a2565b82525050565b6105cc816104f3565b82525050565b60006040820190506105e760008301856105b4565b6105f460208301846105c3565b9392505050565b600080fd5b610609816104f3565b811461061457600080fd5b50565b60008135905061062681610600565b92915050565b600061063782610582565b9050919050565b6106478161062c565b811461065257600080fd5b50565b6000813590506106648161063e565b92915050565b60008060408385031215610681576106806105fb565b5b600061068f85828601610617565b92505060206106a085828601610655565b9150509250929050565b60006020820190506106bf60008301846105b4565b92915050565b60006106d0826105a2565b9050919050565b6106e0816106c5565b81146106eb57600080fd5b50565b6000813590506106fd816106d7565b92915050565b61070c816105a2565b811461071757600080fd5b50565b60008135905061072981610703565b92915050565b600080600060608486031215610748576107476105fb565b5b6000610756868287016106ee565b93505060206107678682870161071a565b925050604061077886828701610617565b9150509250925092565b600060208201905061079760008301846105c3565b92915050565b600082825260208201905092915050565b7f4f6e6c79206f776e65722063616e2077697468647261772066756e6473000000600082015250565b60006107e4601d8361079d565b91506107ef826107ae565b602082019050919050565b60006020820190508181036000830152610813816107d7565b9050919050565b7f496e73756666696369656e742066756e64730000000000000000000000000000600082015250565b600061085060128361079d565b915061085b8261081a565b602082019050919050565b6000602082019050818103600083015261087f81610843565b9050919050565b6000610891826104f3565b915061089c836104f3565b9250828210156108af576108ae6104fd565b5b828203905092915050565b6000819050919050565b60006108df6108da6108d584610582565b6108ba565b610582565b9050919050565b60006108f1826108c4565b9050919050565b6000610903826108e6565b9050919050565b610913816108f8565b82525050565b600060608201905061092e60008301866105b4565b61093b602083018561090a565b61094860408301846105c3565b949350505050565b60008151905061095f81610600565b92915050565b60006020828403121561097b5761097a6105fb565b5b600061098984828501610950565b91505092915050565b7f62616c616e6365206973206c6f77000000000000000000000000000000000000600082015250565b60006109c8600e8361079d565b91506109d382610992565b602082019050919050565b600060208201905081810360008301526109f7816109bb565b9050919050565b60008115159050919050565b610a13816109fe565b8114610a1e57600080fd5b50565b600081519050610a3081610a0a565b92915050565b600060208284031215610a4c57610a4b6105fb565b5b6000610a5a84828501610a21565b91505092915050565b6000606082019050610a7860008301866105b4565b610a8560208301856105b4565b610a9260408301846105c3565b94935050505056fea2646970667358221220e55d41b8499199ce624aa0e1dba28d1cb81c8207caf4b579ccf9918b742d976764736f6c634300080b0033",
  "immutableReferences": {},
  "source": "pragma solidity ^0.8.10;\r\n\r\nimport \"@openzeppelin/contracts/token/ERC20/utils/SafeERC20.sol\";\r\n\r\ncontract FeeCollector  {\r\n    address public owner;\r\n    uint256 public balance;\r\n    \r\n    event TransferReceived(address _from, uint _amount);\r\n    event TransferSent(address _from, address _destAddr, uint _amount);\r\n    \r\n    constructor() {\r\n        owner = msg.sender;\r\n    }\r\n    \r\n    receive() payable external {\r\n        balance += msg.value;\r\n        emit TransferReceived(msg.sender, msg.value);\r\n    }    \r\n    \r\n    function withdraw(uint amount, address payable destAddr) public {\r\n        require(msg.sender == owner, \"Only owner can withdraw funds\"); \r\n        require(amount <= balance, \"Insufficient funds\");\r\n        \r\n        destAddr.transfer(amount);\r\n        balance -= amount;\r\n        emit TransferSent(msg.sender, destAddr, amount);\r\n    }\r\n    \r\n    function transferERC20(IERC20 token, address to, uint256 amount) public {\r\n        require(msg.sender == owner, \"Only owner can withdraw funds\"); \r\n        uint256 erc20balance = token.balanceOf(address(this));\r\n        require(amount <= erc20balance, \"balance is low\");\r\n        token.transfer(to, amount);\r\n        emit TransferSent(msg.sender, to, amount);\r\n    }    \r\n}",
  "sourcePath": "C:\\bitcoincore\\contracts\\FeeCollector.sol",
  "compiler": {
    "name": "solc",
    "version": "0.8.11+commit.d7f03943.Emscripten.clang"
  },
  "schemaVersion": "3.4.4",
  "updatedAt": "2022-09-06T00:03:38.087Z",
  "devdoc": {
    "kind": "dev",
    "methods": {},
    "version": 1
  },
  "userdoc": {
    "kind": "user",
    "methods": {},
    "version": 1
  }
}